:020000040800F2
:100000000040022025320008353100083D3100084B
:1000100000000000000000000000000000000000E0
:100020000000000000000000000000004531000852
:1000300000000000000000004F31000859310008A6
:1000400075320008753200087532000875320008F4
:1000500075320008753200087532000875320008E4
:1000600075320008753200087532000875320008D4
:1000700075320008753200087532000875320008C4
:1000800075320008753200087532000875320008B4
:1000900075320008753200087532000875320008A4
:1000A0007532000875320008753200087532000894
:0C00B00075320008753200087532000837
:1000BC0010B5064C2378002B07D1054B002B02D032
:1000CC00044800E000BF0123237010BD6400002031
:1000DC000000000080440008044B10B5002B03D036
:1000EC000349044800E000BF10BDC04600000000FA
:1000FC006800002080440008002243088B4274D31F
:10010C0003098B425FD3030A8B4244D3030B8B420C
:10011C0028D3030C8B420DD3FF22090212BA030C15
:10012C008B4202D31212090265D0030B8B4219D3F6
:10013C0000E0090AC30B8B4201D3CB03C01A524116
:10014C00830B8B4201D38B03C01A5241430B8B425E
:10015C0001D34B03C01A5241030B8B4201D30B0347
:10016C00C01A5241C30A8B4201D3CB02C01A52416E
:10017C00830A8B4201D38B02C01A5241430A8B4231
:10018C0001D34B02C01A5241030A8B4201D30B021A
:10019C00C01A5241CDD2C3098B4201D3CB01C01A34
:1001AC00524183098B4201D38B01C01A524143093E
:1001BC008B4201D34B01C01A524103098B4201D32C
:1001CC000B01C01A5241C3088B4201D3CB00C01A99
:1001DC00524183088B4201D38B00C01A5241430811
:1001EC008B4201D34B00C01A5241411A00D2014636
:1001FC00524110467047FFE701B5002000F0F0F8BF
:10020C0002BDC0460029F7D076E7704703460B4382
:10021C007FD4002243088B4274D303098B425FD3F3
:10022C00030A8B4244D3030B8B4228D3030C8B421F
:10023C000DD3FF22090212BA030C8B4202D3121205
:10024C00090265D0030B8B4219D300E0090AC30BDA
:10025C008B4201D3CB03C01A5241830B8B4201D387
:10026C008B03C01A5241430B8B4201D34B03C01A70
:10027C005241030B8B4201D30B03C01A5241C30AE8
:10028C008B4201D3CB02C01A5241830A8B4201D359
:10029C008B02C01A5241430A8B4201D34B02C01A43
:1002AC005241030A8B4201D30B02C01A5241CDD2E8
:1002BC00C3098B4201D3CB01C01A524183098B4233
:1002CC0001D38B01C01A524143098B4201D34B011C
:1002DC00C01A524103098B4201D30B01C01A52417F
:1002EC00C3088B4201D3CB00C01A524183088B4206
:1002FC0001D38B00C01A524143088B4201D34B00EF
:10030C00C01A5241411A00D2014652411046704760
:10031C005DE0CA0F00D04942031000D34042534065
:10032C0000229C4603098B422DD3030A8B4212D325
:10033C00FC22890112BA030A8B420CD38901921157
:10034C008B4208D3890192118B4204D389013AD094
:10035C00921100E08909C3098B4201D3CB01C01A69
:10036C00524183098B4201D38B01C01A524143097C
:10037C008B4201D34B01C01A524103098B4201D36A
:10038C000B01C01A5241C3088B4201D3CB00C01AD7
:10039C00524183088B4201D38B00C01A5241D9D2EF
:1003AC0043088B4201D34B00C01A5241411A00D270
:1003BC000146634652415B10104601D34042002B6C
:1003CC0000D54942704763465B1000D3404201B5EB
:1003DC00002000F005F802BD0029F8D016E77047A0
:1003EC007047C046002B11D1002A0FD1002900D133
:1003FC00002802D00021C943080007B4024802A11A
:10040C004018029003BDC046D9FFFFFF03B46846F5
:10041C0001B5029800F006F8019B9E4602B00CBC98
:10042C007047C046F0B557464E464546DE46E0B5E9
:10043C0004000D009246994683B08B4230D82DD0E3
:10044C004946504600F0BAF829000600200000F09A
:10045C00B5F8331A9846203B34D49B4653465A463B
:10046C00934042461F00534693401E00AF423BD878
:10047C00AF4200D179E05B46A41BBD41002B00DAF2
:10048C0076E0002200230092019301235A46934008
:10049C000193012342469340009329E08242CFD935
:1004AC0000220023009201930C9B002B01D01C60B6
:1004BC005D600098019903B0F0BCBB46B246A946FA
:1004CC00A046F0BD42469B4620239B1A5246DA407A
:1004DC00414613004A468A40170042461F43534682
:1004EC0093401E00AF42C3D9002200230092019317
:1004FC004346002BD8D0FB0772081A4346467B08AC
:10050C000EE0AB4201D1A2420CD8A41A9D410120AD
:10051C0024196D410021013E24184D41002E06D0B6
:10052C00AB42EED9013E24196D41002EF8D1009852
:10053C0001995B4600196941002B24DB2B005A46BC
:10054C004646D3402A001C00F2405B461500002BA7
:10055C002ADB26009E40330026004746BE40320070
:10056C00801A9941009001919EE7A342BCD882E782
:10057C004246202300219B1A002200910192012265
:10058C00DA40019285E7424620239B1A2A00464610
:10059C009A402300F340464613432A001C00F240C5
:1005AC005B461500002BD4DA202342462F009B1B00
:1005BC0097402600DE403B003343CDE710B50029C1
:1005CC0003D100F007F8203002E0080000F002F838
:1005DC0010BDC0461C2101231B04984201D3000C02
:1005EC0010391B0A984201D3000A08391B0998429A
:1005FC0001D30009043902A2105C40187047C046B0
:10060C0004030202010101010000000000000000CF
:10061C0002780B78002A03D0013001319A42F7D0CE
:10062C00D01A70470023C25C0133002AFBD1581E3C
:10063C007047000003B47146490840004900095E48
:10064C0049008E4403BC704780B500AFC046BD4620
:10065C0080BD000080B582B000AF78607B68002B55
:10066C0001D1012346E07B6888229B58002B07D1DF
:10067C007B688422002199547B68180002F0F2FCFC
:10068C007B688822242199507B681B681A687B68D8
:10069C001B6801218A431A607B689B6A002B03D07C
:1006AC007B68180000F01EFD7B68180000F0C4F990
:1006BC000300012B01D101231CE07B681B685A68E5
:1006CC007B681B680D490A405A607B681B689A68F6
:1006DC007B681B682A218A439A607B681B681A68AE
:1006EC007B681B6801210A431A607B68180000F0C4
:1006FC00ADFD03001800BD4602B080BDFFB7FFFF83
:10070C0080B58AB002AFF860B9603B60BB1D1A803F
:10071C00FB6888229B58202B00D09AE0BB68002BEA
:10072C0003D0BB1D1B88002B01D1012392E0FB6879
:10073C009A6880235B019A4209D1FB681B69002BE4
:10074C0005D1BB680122134001D0012382E0FB6874
:10075C00902200219950FB6888222121995002F0A7
:10076C0077FA03007B61FB68BA1D542112885A5238
:10077C00FB68BA1D562112885A52FB689A6880236E
:10078C005B019A4208D1FB681B69002B04D1002342
:10079C00FB61BB68BB6103E0BB68FB610023BB6111
:1007AC003AE07A69F8683B680093130000228021D4
:1007BC0000F0F6FD031E05D0FB688822202199501D
:1007CC00032347E0FB69002B0BD1BB691B881A0084
:1007DC00FB681B68D205D20D9A62BB690233BB6100
:1007EC0007E0FB691A78FB681B689A62FB690133A6
:1007FC00FB61FB6888229B5821221340212B09D1D5
:10080C00FB6856229B5A9BB2013B99B2FB6856225D
:10081C00995201E001231DE0FB6856229B5A9BB2C2
:10082C00002BBED17A69F8683B6800931300002254
:10083C00402100F0B5FD031E05D0FB688822202165
:10084C009950032306E0FB6888222021995000234D
:10085C0000E002231800BD4608B080BD80B58AB008
:10086C0002AFF860B9603B60BB1D1A80FB688C223C
:10087C009B58202B00D0D8E0BB68002B03D0BB1DAD
:10088C001B88002B01D10123D0E0FB689A688023E0
:10089C005B019A4209D1FB681B69002B05D1BB682F
:1008AC000122134001D00123C0E0FB6890220021FB
:1008BC009950FB688C2222219950FB680022DA6641
:1008CC0002F0C6F903007B61FB68BA1D5C2112883B
:1008DC005A52FB68BA1D5E2112885A52FB689A68FC
:1008EC0080235B019A420DD1FB681B69002B04D15C
:1008FC00FB6860224F4999522EE0FB686022FF2171
:10090C00995229E0FB689B68002B0DD1FB681B6991
:10091C00002B04D1FB686022FF2199521CE0FB687C
:10092C0060227F21995217E0FB689A6880235B054F
:10093C009A420DD1FB681B69002B04D1FB68602225
:10094C007F21995208E0FB6860223F21995203E015
:10095C00FB686022002199521223FB18FA6860216F
:10096C00525A1A80FB689A6880235B019A4208D11C
:10097C00FB681B69002B04D10023FB61BB68BB61C6
:10098C0003E0BB68FB610023BB6142E07A69F86855
:10099C003B68009313000022202100F001FD031E90
:1009AC0005D0FB688C222021995003233EE0FB6983
:1009BC00002B0ED1FB681B685B6A9BB21222BA1823
:1009CC00128813409AB2BB691A80BB690233BB61AF
:1009DC000EE0FB681B685B6ADBB21222BA18128845
:1009EC00D2B21340DAB2FB691A70FB690133FB61B6
:1009FC00FB688C229B58222B09D1FB685E229B5AE8
:100A0C009BB2013B99B2FB685E22995201E0012333
:100A1C000CE0FB685E229B5A9BB2002BB6D1FB68A4
:100A2C008C2220219950002300E002231800BD469F
:100A3C0008B080BDFF010000B0B590B000AF786287
:100A4C001A2320229B18DB1900221A707B6A9A68E1
:100A5C007B6A1B691A437B6A5B691A437B6ADB6995
:100A6C001343FB637B6A1B681B68C14A1340190064
:100A7C007B6A1A68FB6B0B4313607B6A1B685B68B1
:100A8C00BC4A134018007B6AD9687B6A1A68030059
:100A9C000B4353607B6A9B69FB637B6A1B68B64A9A
:100AAC00934209D07B6A1B68B44A934204D07B6A98
:100ABC001B6AFA6B1343FB637B6A1B689B68B04A27
:100ACC00134019007B6A1A68FB6B0B4393607B6ABB
:100ADC001B68DB6A0F22934318007B6A596A7B6A96
:100AEC001A6803000B43D3627B6A1B68A54A9342C6
:100AFC0031D1A54B5B6D03221340032B1DD023D8A2
:100B0C00022B0CD020D8002B02D0012B0ED01BE0D6
:100B1C001B2320229B18DB1900221A7054E11B2383
:100B2C0020229B18DB1902221A704DE11B23202274
:100B3C009B18DB1904221A7046E11B2320229B18F8
:100B4C00DB1908221A703FE11B2320229B18DB19AA
:100B5C0010221A7038E17B6A1B688C4A934231D19F
:100B6C00894B5B6D0C2213400C2B1DD023D8082B0A
:100B7C000CD020D8002B02D0042B0ED01BE01B2352
:100B8C0020229B18DB1900221A701DE11B23202246
:100B9C009B18DB1902221A7016E11B2320229B18CA
:100BAC00DB1904221A700FE11B2320229B18DB197E
:100BBC0008221A7008E11B2320229B18DB19102233
:100BCC001A7001E17B6A1B68714A934231D16E4BFA
:100BDC005B6D30221340302B1DD023D8202B0CD032
:100BEC0020D8002B02D0102B0ED01BE01B23202270
:100BFC009B18DB1900221A70E6E01B2320229B189D
:100C0C00DB1902221A70DFE01B2320229B18DB1950
:100C1C0004221A70D8E01B2320229B18DB1908220F
:100C2C001A70D1E01B2320229B18DB1910221A709A
:100C3C00CAE07B6A1B68574A934206D11B232022C9
:100C4C009B18DB1900221A70BEE07B6A1B68524AA3
:100C5C00934206D11B2320229B18DB1900221A7009
:100C6C00B2E07B6A1B684D4A934206D11B232022BB
:100C7C009B18DB1900221A70A6E07B6A1B683E4A9F
:100C8C0093423ED1404B5A6DC0231B011340C022EE
:100C9C001201934227D0C022120193422AD88022FB
:100CAC001201934211D080221201934222D8002BC0
:100CBC0004D08022D20093420ED01BE01B232022B2
:100CCC009B18DB1900221A707EE01B2320229B1834
:100CDC00DB1902221A7077E01B2320229B18DB19E8
:100CEC0004221A7070E01B2320229B18DB190822A7
:100CFC001A7069E01B2320229B18DB1910221A7032
:100D0C0062E07B6A1B681D4A934257D11E4B5A6D99
:100D1C00C0239B001340C0229200934240D0C022BB
:100D2C009200934243D880229200934211D08022A9
:100D3C00920093423BD8002B04D080225200934265
:100D4C000ED034E01B2320229B18DB1900221A70D2
:100D5C003AE01B2320229B18DB1902221A7033E085
:100D6C001B2320229B18DB1904221A702CE0C0468E
:100D7C00F369FFCFFFCFFFFF0080004000840040ED
:100D8C00FFF4FF1100380140001002400044004005
:100D9C0000480040004C004000500040003C014026
:100DAC001B2320229B18DB1908221A700CE01B2332
:100DBC0020229B18DB1910221A7005E01B2320221D
:100DCC009B18DB1910221A707B6A1B68C14A93426C
:100DDC0005D07B6A1B68C04A934200D093E01B236A
:100DEC0020229B18DB191B78082B15D018DC042B40
:100DFC000DD015DC002B02D0022B05D010E001F039
:100E0C00BFF903007B6314E0B44B7B6311E001F08A
:100E1C002BF903007B630CE080231B027B6308E04F
:100E2C0000237B631A2320229B18DB1901221A70E2
:100E3C00C0467B6B002B00D135E17B6A5A6AA84B0C
:100E4C005200D35A1900786BFFF756F90300BB62B6
:100E5C007B6A5A6813005B009B18BA6A9A4205D3E6
:100E6C007B6A5B681B03BA6A9A4206D91A23202252
:100E7C009B18DB1901221A7044E07B6BBB610023C9
:100E8C00FB617B6A5A6A964B5200D35A3B61002332
:100E9C007B613A697B69B869F969FFF7A3FA0200CB
:100EAC000B00110E1D020D4314027B6A5B685B087C
:100EBC00BB600023FB60B868F968001969417B6A64
:100ECC005B683B6000237B603A687B68FFF78AFABB
:100EDC0002000B0013003B633A6BC0239B009A4249
:100EEC0009D33A6B80235B039A4204D27B6A1B685A
:100EFC003A6BDA6006E01A2320229B18DB190122D8
:100F0C001A70D0E0CFE07B6ADA6980231B029A4228
:100F1C0000D070E01B2320229B18DB191B78082BB8
:100F2C0015D018DC042B0DD015DC002B02D0022BB5
:100F3C0005D010E001F024F903007B6314E0674B4B
:100F4C007B6311E001F090F803007B630CE08023DD
:100F5C001B027B6308E000237B631A2320229B186F
:100F6C00DB1901221A70C0467B6B002B00D19AE072
:100F7C007B6A5A6A5A4B5200D35A1900786BFFF7A6
:100F8C00BBF803005A007B6A5B685B08D2187B6A6B
:100F9C005B6819001000FFF7AFF803003B633B6B75
:100FAC000F2B21D93A6B80235B029A421CD23B6BEC
:100FBC009AB20E2020240319DB190F218A431A80C0
:100FCC003B6B5B089BB20722134099B20319DB19E8
:100FDC000219D21912880A431A807B6A1B680219FB
:100FEC00D2191288DA605EE01A2320229B18DB19D2
:100FFC0001221A7057E01B2320229B18DB191B7847
:10100C00082B15D018DC042B0DD015DC002B02D0CE
:10101C00022B05D010E001F0B3F803007B6314E061
:10102C002E4B7B6311E001F01FF803007B630CE097
:10103C0080231B027B6308E000237B631A2320229E
:10104C009B18DB1901221A70C0467B6B002B2AD02F
:10105C007B6A5A6A224B5200D35A1900786BFFF7FD
:10106C004BF803001A007B6A5B685B08D2187B6A3A
:10107C005B6819001000FFF73FF803003B633B6B04
:10108C000F2B0AD93A6B80235B029A4205D23B6B39
:10109C009AB27B6A1B68DA6005E01A2320229B183F
:1010AC00DB1901221A707B6A6A22012199527B6A30
:1010BC006822012199527B6A00225A677B6A0022BE
:1010CC009A671A2320229B18DB191B781800BD463F
:1010DC0010B0B0BD00800040008400400024F4003B
:1010EC00A047000880B582B000AF78607B689B6A2F
:1010FC00082213400BD07B681B685B684A4A13407C
:10110C0019007B689A6B7B681B680A435A607B6882
:10111C009B6A012213400BD07B681B685B68434AB7
:10112C00134019007B68DA6A7B681B680A435A60B3
:10113C007B689B6A022213400BD07B681B685B6840
:10114C003B4A134019007B681A6B7B681B680A4387
:10115C005A607B689B6A042213400BD07B681B6827
:10116C005B68344A134019007B685A6B7B681B68B8
:10117C000A435A607B689B6A102213400BD07B6831
:10118C001B689B682C4A134019007B68DA6B7B68E0
:10119C001B680A439A607B689B6A202213400BD021
:1011AC007B681B689B68254A134019007B681A6C86
:1011BC007B681B680A439A607B689B6A40221340D9
:1011CC001DD07B681B685B681D4A134019007B6847
:1011DC005A6C7B681B680A435A607B685A6C802384
:1011EC005B039A420BD17B681B685B68154A134002
:1011FC0019007B689A6C7B681B680A435A607B6891
:10120C009B6A802213400BD07B681B685B680E4A7C
:10121C00134019007B68DA6C7B681B680A435A60C0
:10122C00C046BD4602B080BDFF7FFFFFFFFFFDFF44
:10123C00FFFFFEFFFFFFFBFFFFEFFFFFFFDFFFFFE7
:10124C00FFFFEFFFFFFF9FFFFFFFF7FF80B592B09F
:10125C0002AF78607B6890220021995001F0F8FC75
:10126C000300FB637B681B681B6808221340082B78
:10127C002DD1FB6B802291037868474A00920022A3
:10128C0000F08EF8031E22D0EFF310837B627B6A92
:10129C00BB630123BB62BB6A83F31088C0467B68C7
:1012AC001B681A687B681B6880218A431A60BB6BB9
:1012BC00FB62FB6A83F31088C0467B68882220217E
:1012CC0099507B68842200219954032360E07B6849
:1012DC001B681B6804221340042B46D1FB6B802235
:1012EC00D10378682C4A0092002200F059F8031EB2
:1012FC003BD0EFF31083FB60FB687B6301233B6106
:10130C003B6983F31088C0467B681B681A687B684E
:10131C001B6822490A401A607B6B7B617B6983F3F3
:10132C001088C046EFF31083BB61BB693B6301239C
:10133C00FB61FB6983F31088C0467B681B689A6865
:10134C007B681B6801218A439A603B6B3B623B6A5A
:10135C0083F31088C0467B688C22202199507B68CF
:10136C00842200219954032312E07B6888222021D7
:10137C0099507B688C22202199507B680022DA6678
:10138C007B6800221A677B68842200219954002311
:10139C001800BD4610B080BDFFFFFF01DFFEFFFF50
:1013AC0080B584B000AFF860B9603B60FB1D1A706B
:1013BC0051E0BB6901334ED001F04AFC02003B689E
:1013CC00D31ABA699A4202D3BB69002B01D1032309
:1013DC0051E0FB681B681B68042213403BD0BB68C0
:1013EC00802B38D0BB68402B35D0FB681B68DB6981
:1013FC0008221340082B11D1FB681B6808221A62C3
:10140C00FB68180000F03CF8FB689022082199500A
:10141C00FB6884220021995401232CE0FB681B6893
:10142C00DA6980231B011A4080231B019A4212D1D6
:10143C00FB681B68802212011A62FB68180000F01E
:10144C001FF8FB68902220219950FB688422002110
:10145C00995403230FE0FB681B68DB69BA681340DF
:10146C00BA68D31A5A425341DBB21A00FB1D1B78DF
:10147C009A429ED000231800BD4604B080BD0000E7
:10148C0080B58EB000AF7860EFF310837B617B6921
:10149C007B630123BB61BB6983F31088C0467B6807
:1014AC001B681A687B681B6826490A401A607B6BAC
:1014BC00FB61FB6983F31088C046EFF310833B623A
:1014CC003B6A3B6301237B627B6A83F31088C046D3
:1014DC007B681B689A687B681B681B490A409A608A
:1014EC003B6BBB62BB6A83F31088C0467B68DB6EC8
:1014FC00012B18D1EFF31083BB60BB68FB62012397
:10150C00FB60FB6883F31088C0467B681B681A6815
:10151C007B681B6810218A431A60FB6A3B613B693C
:10152C0083F31088C0467B688C22202199507B68FD
:10153C000022DA667B6800225A67C046BD460EB0B0
:10154C0080BDC046DFFEFFFFFEFFFFEF80B584B01D
:10155C0000AF78607B6884229B5C012B01D1022355
:10156C0027E07B688422012199547B6888222421FE
:10157C0099507B681B681B68FB607B681B681A684A
:10158C007B681B6801218A431A60FB680B4A134075
:10159C00FB607B6800225A667B681B68FA681A60DD
:1015AC007B688822202199507B68842200219954E1
:1015BC0000231800BD4604B080BDC046FFFFFFDF0E
:1015CC0080B584B000AF786039607B6884229B5C06
:1015DC00012B01D102232EE07B6884220121995436
:1015EC007B688822242199507B681B681B68FB60F0
:1015FC007B681B681A687B681B6801218A431A6028
:10160C007B681B689B68DB00D9087B681B683A68A1
:10161C000A439A607B68180000F054F87B681B68DA
:10162C00FA681A607B688822202199507B68842292
:10163C000021995400231800BD4604B080BD000061
:10164C0080B584B000AF786039607B6884229B5C85
:10165C00012B01D102232FE07B68842201219954B4
:10166C007B688822242199507B681B681B68FB606F
:10167C007B681B681A687B681B6801218A431A60A7
:10168C007B681B689B680E4A134019007B681B68BB
:10169C003A680A439A607B68180000F013F87B687C
:1016AC001B68FA681A607B688822202199507B6835
:1016BC0084220021995400231800BD4604B080BD3B
:1016CC00FFFFFFF1F0B585B000AF78607B685B6E13
:1016DC00002B08D17B686A22012199527B68682211
:1016EC000121995243E00F26BB1908221A700E20D3
:1016FC003B1808221A707B681B689B685B0EDAB279
:10170C000D243B1907210A401A707B681B689B68E3
:10171C005B0FDAB20C257B1907210A401A703B18B3
:10172C001B787A19127814498A5C5A4310007B1979
:10173C001B78124AD35C1900FEF768FD030099B2BE
:10174C007B686A229952BB191B783A1912780A499C
:10175C008A5C5A4310003B191B78084AD35C190069
:10176C00FEF754FD030099B27B6868229952C0467B
:10177C00BD4605B0F0BDC046B8470008C0470008DC
:10178C0080B500AF034B9A68E023DB0113401800CF
:10179C00BD4680BD0010024080B588B000AF7860B7
:1017AC007B68002B02D1012300F050FB7B681B6887
:1017BC000122134000D17CE0C34B9B6838221340BC
:1017CC00BB61C14BDB68032213407B61BB69102BEF
:1017DC0002D17B69032B02D0BB69082B0BD1BA4B0E
:1017EC001A6880239B02134062D07B685B68002BD5
:1017FC005ED101232AE37B685A6880235B029A42FC
:10180C0007D1B14B1A68B04B802149020A431A60C8
:10181C0020E07B685A68A023DB029A420ED1AA4BC7
:10182C001A68A94B8021C9020A431A60A64B1A6890
:10183C00A54B802149020A431A600BE0A24B1A689F
:10184C00A14BA2490A401A609F4B1A689E4BA049B3
:10185C000A401A607B685B68002B14D001F0F8F921
:10186C0003003B6108E001F0F3F902003B69D31A75
:10187C00642B01D90323E9E2934B1A6880239B0262
:10188C001340F0D015E001F0E3F903003B6108E0F0
:10189C0001F0DEF902003B69D31A642B01D9032352
:1018AC00D4E2894B1A6880239B021340F0D100E0EC
:1018BC00C0467B681B680222134000D199E0824B22
:1018CC009B6838221340BB617F4BDB6803221340BB
:1018DC007B61BB69102B02D17B69022B02D0BB69E7
:1018EC00002B35D1784B1A688023DB00134005D0D0
:1018FC007B68DB68002B01D10123A7E2724B5B688C
:10190C00744A134019007B685B691A026E4B0A43D8
:10191C005A60BB69002B12D16B4B1B686E4A13408B
:10192C0019007B681A69684B0A431A60664B1B687E
:10193C00DB0A07221340694ADA40694B1A60694B8B
:10194C001B68180001F028F9031E51D001237DE219
:10195C007B68DB68002B30D05B4B1B685E4A134006
:10196C0019007B681A69584B0A431A60564B1A685F
:10197C00554B802149000A431A6001F069F90300B4
:10198C003B6108E001F064F902003B69D31A022BB9
:10199C0001D903235AE24C4B1A688023DB00134015
:1019AC00F0D0494B5B684B4A134019007B685B696C
:1019BC001A02454B0A435A601BE0434B1A68424BD0
:1019CC0049490A401A6001F043F903003B6108E001
:1019DC0001F03EF902003B69D31A022B01D9032313
:1019EC0034E2394B1A688023DB001340F0D100E05D
:1019FC00C0467B681B680822134047D0324B9B685B
:101A0C0038221340182B0AD12F4B1B6E0222134085
:101A1C003CD07B689B69002B38D1012316E27B6894
:101A2C009B69002B19D0284B1A6E274B01210A43B6
:101A3C001A6601F00DF903003B6108E001F008F9AA
:101A4C0002003B69D31A022B01D90323FEE11E4B82
:101A5C001B6E02221340F1D018E01B4B1A6E1A4B6E
:101A6C0001218A431A6601F0F3F803003B6108E098
:101A7C0001F0EEF802003B69D31A022B01D90323C3
:101A8C00E4E1114B1B6E02221340F1D17B681B6801
:101A9C000422134000D1C7E01F23FB1800221A7048
:101AAC00094B9B6838221340202B1FD1064BDB6D52
:101ABC000222134000D1B7E07B689B68002B00D05A
:101ACC00B2E00123C2E1C04600100240FFFFFEFF5E
:101ADC00FFFFFBFFFF80FFFFFFC7FFFF0024F400A9
:101AEC000000002004000020FFFEFFFFB54BDA6B66
:101AFC0080235B05134001D1012300E00023002B60
:101B0C0011D0B04BDA6BAF4B802149050A43DA6335
:101B1C00AC4BDA6B80235B051340FB60FB681F2327
:101B2C00FB1801221A70A84B1A6880235B00134023
:101B3C001AD1A54B1A68A44B802149000A431A609C
:101B4C0001F086F803003B6108E001F081F8020027
:101B5C003B69D31A022B01D9032377E19A4B1A68FC
:101B6C0080235B001340F0D07B689B68012B06D16F
:101B7C00944BDA6D934B01210A43DA651CE07B68C8
:101B8C009B68052B0CD18F4BDA6D8E4B04210A43CD
:101B9C00DA658C4BDA6D8B4B01210A43DA650BE06D
:101BAC00884BDA6D874B01218A43DA65854BDA6DF8
:101BBC00844B04218A43DA657B689B68002B14D024
:101BCC0001F046F803003B6109E001F041F8020026
:101BDC003B69D31A7D4A934201D9032336E1794BF1
:101BEC00DB6D02221340F0D013E001F031F803005A
:101BFC003B6109E001F02CF802003B69D31A734AEF
:101C0C00934201D9032321E16E4BDB6D0222134079
:101C1C00F0D11F23FB181B78012B05D1694BDA6B14
:101C2C00684B6B490A40DA637B681B6820221340BF
:101C3C0039D07B68DB69002B1BD0624B1A68614B77
:101C4C008021C9030A431A6001F002F803003B61CA
:101C5C0008E000F0FDFF02003B69D31A022B01D90A
:101C6C000323F3E0574B1A6880231B041340F0D076
:101C7C0019E0544B1A68534B56490A401A6000F04D
:101C8C00E7FF03003B6108E000F0E2FF02003B6964
:101C9C00D31A022B01D90323D8E04A4B1A688023AC
:101CAC001B041340F0D17B681B6A002B00D1CCE0E5
:101CBC00444B9B6838221340102B00D17BE07B688F
:101CCC001B6A022B56D13F4B1A683E4B42490A40C5
:101CDC001A6000F0BDFF03003B6108E000F0B8FFA4
:101CEC0002003B69D31A022B01D90323AEE0354B1A
:101CFC001A6880239B041340F0D1324BDB68374ABF
:101D0C00134019007B685A6A7B689B6A1A437B688C
:101D1C00DB6A1B021A437B681B6B1A437B685B6B89
:101D2C001A437B689B6B1A43264B0A43DA60254B9C
:101D3C001A68244B802149040A431A60214BDA6843
:101D4C00204B802149050A43DA6000F081FF030033
:101D5C003B6108E000F07CFF02003B69D31A022BC8
:101D6C0001D9032372E0174B1A6880239B0413409C
:101D7C00F0D06AE0134B1A68124B17490A401A60EC
:101D8C0000F066FF03003B6108E000F061FF020019
:101D9C003B69D31A022B01D9032357E0094B1A686C
:101DAC0080239B041340F0D1064BDA68054B0C4999
:101DBC000A40DA6049E07B681B6A012B12D10123CF
:101DCC0044E0C04600100240007000408813000040
:101DDC00FFFFFFEFFFFFBFFFFFFFFFFE8C80C11176
:101DEC00FCFFFEEE1B4BDB687B617B6903221A4018
:101DFC007B685B6A9A4226D17B6970221A407B68A9
:101E0C009B6A9A421FD17A69FE23DB011A407B68D8
:101E1C00DB6A1B029A4216D17A69F8239B031A409B
:101E2C007B681B6B9A420ED17A69E0231B051A4022
:101E3C007B685B6B9A4206D17B695B0F5A077B68A8
:101E4C009B6B9A4201D0012300E000231800BD4691
:101E5C0008B080BD0010024080B584B000AF78603F
:101E6C0039607B68002B01D10123E9E0764B1B68BC
:101E7C00072213403A689A421ED9734B1B680722FB
:101E8C0093431900704B3A680A431A6000F0E0FE65
:101E9C000300FB6009E000F0DBFE0200FB68D31AD4
:101EAC006A4A934201D90323CAE0674B1B68072295
:101EBC0013403A689A42EED17B681B6802221340A9
:101ECC0015D07B681B680422134006D0604B9A68BF
:101EDC005F4BE021C9010A439A605D4B9B685D4AE8
:101EEC00134019007B689A68594B0A439A607B68C7
:101EFC001B680122134057D07B685B68012B07D10C
:101F0C00534B1A6880239B0213402BD1012397E07B
:101F1C007B685B68022B07D14D4B1A6880239B04AE
:101F2C0013401FD101238BE07B685B68002B07D12A
:101F3C00474B1A688023DB00134013D101237FE049
:101F4C007B685B68032B06D1414B1B6E022213404E
:101F5C0008D1012374E03E4BDB6D0222134001D10A
:101F6C0001236DE03A4B9B680722934319007B6871
:101F7C005A68374B0A439A6000F06AFE0300FB6014
:101F8C0009E000F065FE0200FB68D31A2F4A934269
:101F9C0001D9032354E02E4B9B6838221A407B68EE
:101FAC005B68DB009A42ECD1274B1B68072213407D
:101FBC003A689A421ED2244B1B680722934319009D
:101FCC00214B3A680A431A6000F042FE0300FB60A2
:101FDC0009E000F03DFE0200FB68D31A1B4A934255
:101FEC0001D903232CE0184B1B68072213403A68D5
:101FFC009A42EED17B681B680422134009D0144B23
:10200C009B68154A134019007B68DA68104B0A4329
:10201C009A6000F029F801000D4B9B681B0A0F22F7
:10202C001A400E4B9200D3581F2213400A00DA407C
:10203C000B4B1A600B4B1B68180000F0ADFD030036
:10204C001800BD4604B080BD00200240881300007B
:10205C0000100240FFF0FFFFFF8FFFFF404700081A
:10206C00000000200400002080B586B000AF3C4B7F
:10207C009B68382213400FD1394B1B68DB0A0722AF
:10208C00134001229A4013003B6039683548FEF733
:10209C0033F803003B615DE0314B9B683822134001
:1020AC00082B02D1304B3B6154E02D4B9B683822FE
:1020BC001340102B38D12A4BDB6803221340FB60F2
:1020CC00274BDB681B09072213400133BB60FB68FD
:1020DC00032B0DD1B9682448FEF70EF80300190044
:1020EC001F4BDB681B0A7F2213404B437B610DE0C7
:1020FC00B9681C48FEF700F803001900184BDB68A0
:10210C001B0A7F2213404B437B61C046144BDB6898
:10211C005B0F0722134001337B6079687869FDF708
:10212C00EBFF03003B6115E00D4B9B68382213401D
:10213C00202B03D180231B023B610BE0084B9B68D7
:10214C0038221340182B03D1FA23DB013B6101E049
:10215C0000233B613B691800BD4606B080BDC046FC
:10216C00001002400024F40000127A0080B500AF89
:10217C00024B1B681800BD4680BDC0460000002005
:10218C00B0B500AFFFF7F2FF0400FFF7F9FA030058
:10219C001A0B054B9200D3581F221340DC4023002E
:1021AC001800BD46B0BDC0468047000880B586B05B
:1021BC0000AF78601323FB1800221A701223FB184F
:1021CC0000221A707B681A6880239B02134000D18E
:1021DC00ADE011203B1800221A70474BDA6B8023BC
:1021EC005B05134010D1444BDA6B434B80214905FE
:1021FC000A43DA63404BDA6B80235B051340BB6008
:10220C00BB683B1801221A703C4B1A683B4B80216F
:10221C0049000A431A6000F01BFD0300FB600BE051
:10222C0000F016FD0200FB68D31A022B04D913230D
:10223C00FB1803221A7005E0304B1A6880235B00F0
:10224C001340EDD01323FB181B78002B5ED12A4BC7
:10225C00DA6DC0239B0013407B617B69002B19D086
:10226C007B681B6C7A699A4214D0234BDB6D244A31
:10227C0013407B61204BDA6D1F4B802149020A43CE
:10228C00DA651D4BDA6D1C4B1E490A40DA651A4B98
:10229C007A69DA657B690122134016D000F0D8FC0C
:1022AC000300FB600CE000F0D3FC0200FB68D31AC7
:1022BC00154A934204D91323FB1803221A7004E025
:1022CC000D4BDB6D02221340EDD01323FB181B7852
:1022DC00002B0AD1084BDB6D094A134019007B68AF
:1022EC001A6C054B0A43DA6516E01223FB1813220D
:1022FC00BA1812781A700FE00010024000700040FB
:10230C00FFFCFFFFFFFFFEFF881300001223FB18EA
:10231C001322BA1812781A701123FB181B78012B90
:10232C0005D1B64BDA6BB54BB5490A40DA637B681D
:10233C001B680122134009D0B04B5B6D0322934301
:10234C0019007B685A68AD4B0A435A657B681B6859
:10235C000222134009D0A94B5B6D0C229343190048
:10236C007B689A68A54B0A435A657B681B680422F4
:10237C00134009D0A14B5B6D3022934319007B684D
:10238C00DA689E4B0A435A657B681B68102213401F
:10239C0009D09A4B5B6D9B4A134019007B681A69F4
:1023AC00964B0A435A657B681A6880235B0113407D
:1023BC0009D0924B5B6D944A134019007B685A69A3
:1023CC008E4B0A435A657B681A6880239B00134026
:1023DC0009D08A4B5B6D8D4A134019007B689A6A51
:1023EC00864B0A435A657B681A688023DB001340CE
:1023FC0009D0824B5B6D864A134019007B68DA6A00
:10240C007E4B0A435A657B681B682022134009D017
:10241C007A4B5B6D7F4A134019007B689A69774B46
:10242C000A435A657B681B684022134009D0734BE2
:10243C005B6D794A134019007B68DA696F4B0A436C
:10244C005A657B681A688023DB01134015D06B4BEF
:10245C005B6D9B0099087B681A6B684B0A435A6545
:10246C007B681A6B8023DB059A4206D1634BDA68D2
:10247C00624B802149020A43DA607B681A68802328
:10248C001B03134009D05D4B5B6D40229343190035
:10249C007B685A6B594B0A435A657B681A688023D0
:1024AC009B03134016D0554B5B6D5C4A13401900CF
:1024BC007B689A6B514B0A435A657B689A6B8023F5
:1024CC00DB039A4206D14D4BDA684C4B8021490410
:1024DC000A43DA607B681A688023DB03134016D04A
:1024EC00464B5B6D4E4A134019007B68DA6B434BCD
:1024FC000A435A657B68DA6B80235B049A4206D1E7
:10250C003E4BDA683D4B802149040A43DA607B6814
:10251C001A6880231B01134014D0384B9B6D032287
:10252C00934319007B681A6A344B0A439A657B689B
:10253C001B6A012B06D1314BDA68304B80214902E2
:10254C000A43DA607B681A6880239B01134014D01D
:10255C002A4B9B6D0C22934319007B685A6A274BBC
:10256C000A439A657B685B6A042B06D1234BDA68B5
:10257C00224B802149020A43DA607B681A68802367
:10258C005B04134016D01D4B9B6D224A134019005F
:10259C007B685A6C194B0A439A657B685A6C80238A
:1025AC009B019A4206D1154BDA68144B80214904E1
:1025BC000A43DA607B681A6880239B04134016D0A8
:1025CC000E4B9B6D104A134019007B689A6C0B4B99
:1025DC000A439A657B689A6C80235B009A4206D109
:1025EC00064BDA68054B802149040A43DA60122352
:1025FC00FB181B781800BD4606B080BD00100240C9
:10260C00FFFFFFEFFFF3FFFFFFFCFFFFFFFFF3FFF9
:10261C00FFFFCFFFFFCFFFFFFF3FFFFFFFFFBFFF1E
:10262C00FFFFFFFE80B586B000AF786039600023F5
:10263C007B614DE13B681B6801217A6991400A007E
:10264C001340FB60FB68002B00D13EE13B685B68EC
:10265C0003221340012B05D03B685B680322134017
:10266C00022B30D17B689B683B617B695B0003224A
:10267C009A401300DA433B6913403B613B68DA68CC
:10268C007B695B009A4013003A6913433B617B689A
:10269C003A699A607B685B683B6101227B699A406E
:1026AC001300DA433B6913403B613B685B681B09D1
:1026BC0001221A407B699A4013003A6913433B612B
:1026CC007B683A695A603B685B6803221340032BB2
:1026DC0017D07B68DB683B617B695B0003229A4007
:1026EC001300DA433B6913403B613B689A687B6992
:1026FC005B009A4013003A6913433B617B683A696B
:10270C00DA603B685B6803221340022B23D17B69A0
:10271C00DA087B6808329200D3583B617B69072248
:10272C0013409B000F229A401300DA433B6913407D
:10273C003B613B681A697B6907210B409B009A40FF
:10274C0013003A6913433B617B69DA087B680832F2
:10275C0092003969D1507B681B683B617B695B00D7
:10276C0003229A401300DA433B6913403B613B68F8
:10277C005B6803221A407B695B009A4013003A693C
:10278C0013433B617B683A691A603B685A68C02303
:10279C009B02134000D198E0534A7B699B08183385
:1027AC009B009B583B617B6903221340DB000F228B
:1027BC009A401300DA433B6913403B617A68A023CB
:1027CC00DB059A4219D07B68484A934213D07B6848
:1027DC00474A93420DD07B68464A934207D07B68A8
:1027EC00454A934201D1042308E0052306E0032364
:1027FC0004E0022302E0012300E000237A690321B4
:10280C000A40D20093403A6913433B6136497B69D5
:10281C009B0818339B003A695A50334B1B683B6139
:10282C00FB68DA433B6913403B613B685A68802381
:10283C005B03134003D03A69FB6813433B612A4B9B
:10284C003A691A60284B5B683B61FB68DA433B6969
:10285C0013403B613B685A6880239B03134003D0B1
:10286C003A69FB6813433B611F4B3A695A601E4A35
:10287C008423D3583B61FB68DA433B6913403B61CB
:10288C003B685A6880239B02134003D03A69FB686B
:10289C0013433B61144984223B698B50124A8023B9
:1028AC00D3583B61FB68DA433B6913403B613B689F
:1028BC005A6880235B02134003D03A69FB681343C8
:1028CC003B61094980223B698B507B6901337B61F9
:1028DC003B681A687B69DA40131E00D0AAE6C04632
:1028EC00C046BD4606B080BD001802400004005032
:1028FC0000080050000C00500010005080B584B04F
:10290C0000AF78600A00BB1C1A807B681B69BA1C7C
:10291C001288134004D00F23FB1801221A7003E015
:10292C000F23FB1800221A700F23FB181B781800BA
:10293C00BD4604B080BD80B582B000AF78600800A1
:10294C001100BB1C021C1A807B1C0A1C1A707B1CFD
:10295C001B78002B04D0BB1C1A887B689A6103E09F
:10296C00BB1C1A887B689A62C046BD4602B080BD0B
:10297C0080B584B000AF7860194B1B68194A1340BE
:10298C001900174B7A680A431A607A6880239B00F7
:10299C009A421FD1144B1A6813005B009B185B0002
:1029AC0012491800FDF7A8FB03000133FB6008E097
:1029BC00FB68002B03D0FB68013BFB6001E00323A9
:1029CC0009E0074B5A698023DB001A408023DB00A7
:1029DC009A42EDD000231800BD4604B080BDC0461D
:1029EC0000700040FFF9FFFF0000002040420F0084
:1029FC0090B583B000AF02003960FB1D1A70FB1D4F
:102A0C001B787F2B28D82F4AFB1D1B785BB29B08A9
:102A1C00C0339B009B58FA1D1278110003220A4008
:102A2C00D200FF2191400A00D2431A4011003B68AA
:102A3C009B01FF221A40FB1D1B7818000323034047
:102A4C00DB009A401F48FB1D1B785BB29B080A43B6
:102A5C00C0339B001A5031E01B4AFB1D1B78190038
:102A6C000F230B40083B9B0806339B00D318043301
:102A7C001B68FA1D1278110003220A40D200FF21B4
:102A8C0091400A00D2431A4011003B689B01FF227F
:102A9C001A40FB1D1B78180003230340DB009A40EF
:102AAC000948FB1D1B781C000F232340083B9B0887
:102ABC000A4306339B00C31804331A60C046BD4654
:102ACC0003B090BD00E100E000ED00E080B582B005
:102ADC0000AF78607B685A1E80235B049A4201D356
:102AEC00012310E00A4B7A68013A5A6001235B42D9
:102AFC0003211800FFF77CFF054B00229A60044B62
:102B0C0007221A6000231800BD4602B080BDC046E3
:102B1C0010E000E080B584B000AFB9607A600F219E
:102B2C007B18021C1A70BA687B181B785BB21100F8
:102B3C001800FFF75DFFC046BD4604B080BD80B5F0
:102B4C0082B000AF78607B681800FFF7BFFF03000E
:102B5C001800BD4602B080BD80B582B000AFFB1D31
:102B6C0000221A700B4B1A680A4B802149000A4349
:102B7C001A60032000F010F8031E03D0FB1D012285
:102B8C001A7001E000F0EAFAFB1D1B781800BD4634
:102B9C0002B080BD0020024090B585B000AF7860D7
:102BAC000F23FB1800221A701D4B1B78002B2BD007
:102BBC001C4B1C681A4B1B781900FA239800FDF764
:102BCC009BFA030019002000FDF796FA0300180089
:102BDC00FFF7B5FF031E12D17B68032B0AD8796867
:102BEC0001235B4200221800FFF794FF0E4B7A681A
:102BFC001A600DE00F23FB1801221A7008E00F2356
:102C0C00FB1801221A7003E00F23FB1801221A7023
:102C1C000F23FB181B781800BD4605B090BDC046AD
:102C2C0008000020000000200400002080B500AF48
:102C3C00054B1B781A00054B1B68D218034B1A6006
:102C4C00C046BD4680BDC046080000208000002064
:102C5C0080B500AF024B1B681800BD4680BDC04656
:102C6C008000002080B584B000AF7860FFF7F0FFE3
:102C7C000300BB607B68FB60FB68013305D00A4B2B
:102C8C001B781A00FB689B18FB60C046FFF7E0FF3F
:102C9C000200BB68D31AFA689A42F7D8C046C046FD
:102CAC00BD4604B080BDC0460800002080B582B08F
:102CBC0000AF7860064B1B68064A13401900044BA2
:102CCC007A680A431A60C046BD4602B080BDC04651
:102CDC0000000140FFF9FFFF80B582B000AFFFF7A5
:102CEC003BFF00F04FF800F019F900F06DF91D4BA7
:102CFC00180000F0BBFA1C4B180000F08FFD03000D
:102D0C001A001A4B1A7000F09BF8184B1B78002B0A
:102D1C001BD03B000821180000F0C8FD031E08D092
:102D2C003900134B0722180000F008FF104B00224B
:102D3C00DA7100F0BDF80F4B18780F4B19780F4B68
:102D4C001B781A0000F03AFE07E0074B180000F061
:102D5C0065FD03001A00054B1A70094B1800FFF7AC
:102D6C0081FFD0E7880000209844000887000020ED
:102D7C000C0000208400002085000020860000202C
:102D8C008813000090B595B000AF14243B191800BF
:102D9C003C231A00002100F0BBFE3B1D1800102341
:102DAC001A00002100F0B4FE80239B001800FFF7EE
:102DBC00DFFD3B1902221A603B1980225200DA60B7
:102DCC0021007B1800221A617B1840225A617B1863
:102DDC0002221A627B1802225A627B1800229A6223
:102DEC007B180822DA627B18802292021A637B1805
:102DFC00802292045A637B18802292059A637B1876
:102E0C001800FEF7C9FC031E01D000F081F83B1D31
:102E1C0007221A603B1D02225A603B1D00229A6059
:102E2C003B1D0022DA603B1D02211800FFF714F84D
:102E3C00031E01D000F06CF8C046BD4615B090BD25
:102E4C0080B500AF164B02211800FFF757FD0300A9
:102E5C005A425341DAB2134B1A70114B0421180029
:102E6C00FFF74CFD03005A425341DAB20E4B1A7075
:102E7C000D4B1B78002B08D00A4B1B7801225340BA
:102E8C00DBB2002B01D0012300E000231A1C01232C
:102E9C001340DAB2054B1A70C046BD4680BDC04621
:102EAC0000040050850000208600002084000020D3
:102EBC0080B500AF124B1B78002B07D080235B0032
:102ECC00104800221900FFF736FD16E00E4A0F4B92
:102EDC0011001800FDF79CFB031E07D180235B003B
:102EEC00084801221900FFF726FD06E080235B004D
:102EFC00044800221900FFF71EFDBD4680BDC046E8
:102F0C008500002000040050A44400080C000020A0
:102F1C0080B500AF72B6C046C046FDE790B589B02B
:102F2C0000AF0C243B19180014231A00002100F0E8
:102F3C00EFFD234B5A6B224B02210A435A63204B61
:102F4C005B6B02221340BB60BB681D4B5A6B1C4B66
:102F5C0001210A435A631A4B5B6B012213407B60BD
:102F6C007B6880235B00174800221900FFF7E3FC05
:102F7C003B1906221A603B1900225A603B190122A8
:102F8C009A603B190F4A19001000FFF74BFB210008
:102F9C007B18802252001A607B1801225A607B1821
:102FAC0000229A607B180022DA607B18054A19000F
:102FBC001000FFF737FBC046BD4609B090BDC046B8
:102FCC00001002400004005080B500AF234B244A8F
:102FDC001A60224BE12252025A60204B00229A6066
:102FEC001E4B0022DA601D4B00221A611B4B0C2277
:102FFC005A611A4B00229A61184B0022DA61174B66
:10300C0000221A62154B00225A62144B00229A625B
:10301C00124B1800FDF71EFB031E01D0FFF778FFC3
:10302C000E4B00211800FEF7CBFA031E01D0FFF760
:10303C006FFF0A4B00211800FEF702FB031E01D0A4
:10304C00FFF766FF054B1800FEF780FA031E01D050
:10305C00FFF75EFFC046BD4680BDC046880000201D
:10306C000038014090B59DB000AF78605C23FB1830
:10307C00180014231A00002100F04AFD10243B19FB
:10308C0018004C231A00002100F042FD7B681B68DD
:10309C00234A93423FD13B1901221A603B1900226B
:1030AC005A603B191800FFF781F8031E01D0FFF797
:1030BC002FFF1C4B1A6C1B4B8021C9010A431A644D
:1030CC00184B1A6C8023DB011340FB60FB68154B1B
:1030DC005A6B144B01210A435A63124B5B6B01224E
:1030EC001340BB60BB685C217B18C022D2001A6005
:1030FC007B1802225A607B1800229A607B180022EF
:10310C00DA607B1801221A617A18A023DB05110002
:10311C001800FFF787FAC046BD461DB090BDC046EB
:10312C00003801400010024080B500AFC046FDE7FA
:10313C0080B500AFC046FDE780B500AFC046BD46C8
:10314C0080BD80B500AFC046BD4680BD80B500AF28
:10315C00FFF76CFDC046BD4680BD000080B582B057
:10316C0000AF114B1A6C104B01210A431A640E4B21
:10317C001B6C012213407B607B680B4BDA6B0A4B98
:10318C00802149050A43DA63074BDA6B80235B0520
:10319C0013403B603B68C023DB001800FFF786FD43
:1031AC00C046BD4602B080BD0010024080B586B05E
:1031BC0000AF7860144A154BD31A7B617B693B6175
:1031CC00134B1B68002B02D1114B124A1A60104B87
:1031DC001A687B68D3183A699A4207D200F0D8FC77
:1031EC0003000C221A6001235B4209E0084B1B68A8
:1031FC00FB60074B1A687B68D218054B1A60FB689A
:10320C001800BD4606B080BD00400220000400003E
:10321C001C010020700600200D488546FDF714FAAD
:10322C000C480D490D4A002302E0D458C450043315
:10323C00C4188C42F9D30A4A0A4C002301E01360EB
:10324C000432A242FBD300F0A9FCFFF745FDFEE7D8
:10325C000040022000000020640000200C48000800
:10326C006400002070060020FEE7000080B582B0EC
:10327C0000AF7860084B7A681A60084B00221A80FD
:10328C008023DA00064B0021180000F041FCC046F8
:10329C00BD4602B080BDC0462001002024050020A0
:1032AC002401002080B500AF064B00221A80802339
:1032BC00DA00054B0021180000F02AFCC046BD4680
:1032CC0080BDC046240500202401002090B585B0A7
:1032DC0000AF78603960FFF7BBFC0300FB6033E0A4
:1032EC00204B18680B2439190A230122FDF7B6FA72
:1032FC00031E29D11C4B1B881C4A934210D81A4B15
:10330C001B885A1C91B2184A11801A003B19197863
:10331C00174B9954144B1B881A00154B00219954C8
:10332C007A68134B1100180000F01CFC031E01D02E
:10333C00002312E00F4A0E4B1100180000F012FC93
:10334C00031E01D0012308E0FFF782FC0200FB689A
:10335C00D31A3A689A42C3D802231800BD4605B066
:10336C0090BDC0462001002024050020FE03000073
:10337C0024010020A844000890B585B000AFF86087
:10338C00B9607A60FFF78EFF0F4B1C68FB68180062
:10339C00FDF748F903009AB2FA239B00F968200064
:1033AC00FDF7AEF9084B1868084964230222FDF7B3
:1033BC00A7F97A68BB6811001800FFF787FF0300B4
:1033CC001800BD4605B090BD20010020B044000897
:1033DC0080B584B000AF7860FFF73AFC0300FB6067
:1033EC000FE0FA239A000D490D4B1800FFF7C4FFAC
:1033FC00031E01D100230DE0FA235B001800FFF738
:10340C0031FCFFF725FC0200FB68D31A7A689A425C
:10341C00E7D802231800BD4604B080BDB4440008B0
:10342C00B844000880B500AF0B4A0C490C4B18008F
:10343C00FFF7A2FF031E01D100230AE0064A094947
:10344C00074B1800FFF798FF031E01D1002300E083
:10345C0001231800BD4680BDB80B0000BC44000819
:10346C00C8440008D444000890B5A3B000AF7860FD
:10347C00154A1649164B1800FFF77EFFFA235B001E
:10348C001800FFF7EFFB7B68124A082438198021DB
:10349C0000F00AFB0C4A0D493B191800FFF76CFFB2
:1034AC00031E01D001230AE00B4A08490B4B1800FC
:1034BC00FFF762FF031E01D0012300E00023180078
:1034CC00BD4623B090BDC04688130000B44400082C
:1034DC00E0440008F0440008983A00000845000851
:1034EC0090B5E7B000AFF860B9605A4BCC214900F9
:1034FC005B18DB191A80FA23DA005749574B18006E
:10350C00FFF73AFF96235B001800FFF7ABFB544A1A
:10351C005149544B1800FFF72FFF031E01D0012314
:10352C0094E0514A4C49514B1800FFF725FF031EFC
:10353C0005D04D4A48494E4B1800FFF71DFF4A4A2B
:10354C0045494C4B1800FFF717FFFB684A4AC0214E
:10355C0049001024381900F0A7FA414A3E493B199A
:10356C001800FFF709FF031E08D0FA23DA003A49C6
:10357C003A4B1800FFF700FF012367E03F4A404930
:10358C00404B1800FFF7F8FE031E08D0FA23DA00B0
:10359C003149324B1800FFF7EFFE012356E0FFF7DD
:1035AC0081FE394A39493A4B1800FFF7E5FEBB68F2
:1035BC00002B43D0374B0A21180000F0B1FA03005E
:1035CC00C8225200B9180B60BB181B68002B32D0F4
:1035DC00BB181B680133B9180B60BB181B681800AB
:1035EC00FDF720F80200CB2149007B181A80194BFB
:1035FC00CC2040001B18DA197B1812881B889A42C1
:10360C0006D87B18134A1218D2191288013A1A805C
:10361C00CB2464003B191A88C8235B00FB1819687B
:10362C00BB68180000F08AFA3B191B88BA68D318DB
:10363C0000221A7002E0BB6800221A70FA23DA002A
:10364C000549064B1800FFF797FE00231800BD46EE
:10365C0067B090BD6EFEFFFFB4440008184500082B
:10366C008813000024450008B80B00003045000802
:10367C00484500085845000884450008307500008E
:10368C009C450008B045000810270000C045000804
:10369C00CC4500082401002090B5E5B000AF78605F
:1036AC0039603B681800FCF7BDFF0200C7235B00C4
:1036BC00FB181A80FA23DA0049494A4B1800FFF725
:1036CC005BFE96235B001800FFF7CCFA464A444990
:1036DC00464B1800FFF750FE031E01D001237BE080
:1036EC00434A3F49434B1800FFF746FE404A3C49CA
:1036FC00414B1800FFF740FE3D4A39493F4B18003B
:10370C00FFF73AFE7B683E4AC02149000C24381969
:10371C0000F0CAF9344A32493B191800FFF72CFE65
:10372C00031E08D0FA23DA002D492E4B1800FFF7A0
:10373C0023FE012350E0C7235B00FB181B88314A92
:10374C00C02149000C24381900F0AEF9264A2E4944
:10375C003B191800FFF710FE031E08D0FA23DA00FD
:10376C001F49204B1800FFF707FE012334E0274BBD
:10377C0018681D4CC7235B00FB181A883968230096
:10378C00FCF7BEFF184A164B11001800FFF79EFD00
:10379C00031E08D0FA23DA001149124B1800FFF768
:1037AC00EBFD012318E01A4A1A491B4B1800FFF7CE
:1037BC00E3FD031E08D0FA23DA000949094B18006F
:1037CC00FFF7DAFD012307E0FA23DA000449054B81
:1037DC001800FFF7D1FD00231800BD4665B090BD61
:1037EC00B44400081845000888130000244500085C
:1037FC00B80B00003045000858450008E0450008AB
:10380C0084450008044600081C46000820010020DE
:10381C0030750000284600083C46000880B584B08E
:10382C0000AF78601C4B1800FFF7D2FD031E01D0CF
:10383C0000232CE0FA23DA001849194B1800FFF783
:10384C009BFDFFF705FA0300FB6007E0FFF7EAFDBD
:10385C00031E0CD0134B1800FFF704FAFFF7F8F90E
:10386C000200FB68D31A104A9342EFD900E0C0461D
:10387C00FFF7D8FD031E01D0002308E07B68180079
:10388C00FFF7F2FD031E01D0002300E00123180016
:10389C00BD4604B080BDC046307500004C460008E3
:1038AC0050460008B80B00005FEA0000B0B53D4C74
:1038BC00A54402AF78600A003B4B862189005B1857
:1038CC00DB191A70394C3A4A802359000C257819A7
:1038DC00384B0093230000F0E7F880235A0086232E
:1038EC005B00F9187B191800FFF7FAFD031E01D0D5
:1038FC00002350E086235B00FB182221180000F007
:10390C000FF903008424A4003A1913603B191B68B7
:10391C00002B3FD03B191B6801333A1913603B193C
:10392C001B682221180000F0FBF803008322920090
:10393C00B9180B60BB181B68002B2BD0BB181A686E
:10394C003B191B68D21A1C497B181A707A18164B33
:10395C00862080001B18DB1912781B789A4206D33C
:10396C007B18114A1218D2191278013A1A70124C9B
:10397C003B191A7884239B00FB1819687B68180084
:10398C0000F0DCF83B191B787A68D31800221A7007
:10399C00012300E000231800BD4686239B009D44B4
:1039AC00B0BDC046E0FDFFFFEBFDFFFF5846000831
:1039BC00AC460008C046000817020000F0B5304CB9
:1039CC00A54402AF0400080011002E4B8225AD0067
:1039DC005B19DB19221C1A702B4B5B19DB19021CAF
:1039EC001A702A4B5B19DB190A1C1A70284C294ACD
:1039FC008023590084235B00F818274B0093230085
:103A0C0000F052F81F4B5B19DB191B78002B01D00F
:103A1C00224900E022491C4B822292009B18DB19A0
:103A2C001B78002B01D01D4B00E01D4B174A822048
:103A3C0080001218D2191278002A01D0174A00E01F
:103A4C00174A184D802044000826B819019200939B
:103A5C000B002A00210000F027F8BA1984235B0020
:103A6C00FB1811001800FFF717FE03005A425341D0
:103A7C00DBB21800BD4683239B009D44F0BDC046BD
:103A8C00ECFDFFFFFFFDFFFFFEFDFFFFFDFDFFFF58
:103A9C0058460008D8460008C0460008E44600080E
:103AAC00EC460008F44600080CB430B5174B0C007B
:103ABC001D689DB0002908DA8B2301202B60404241
:103ACC001DB030BC08BC02B01847822302A99B0071
:103ADC008B81002302904B6608619C4200D0631ED0
:103AEC008B604B6101235B42CB81280021AB209A78
:103AFC00019300F0D9F9431C01DA8B232B60002CC5
:103B0C00DED00022029B1A70DAE7C04614000020B7
:103B1C0003008218934200D1704719700133F9E702
:103B2C00C9B20378002B04D08B4200D1704701300E
:103B3C00F7E74B42594149420840F7E7030030B5DB
:103B4C001D00002A06D00C78013A01332C7001318B
:103B5C00002CF5D100219A18934200D130BD197078
:103B6C000133F9E70A7830B5002A0CD130BD9A42FE
:103B7C0008D10123CC5C002CF8D0C55CA54201D146
:103B8C000133F7E701300378002BF0D11800EDE793
:103B9C00014B18687047C0461400002070B5002611
:103BAC000C4C0D4D641BA410A64209D1002600F04C
:103BBC0061FC0A4C0A4D641BA410A64205D170BDD1
:103BCC00B300EB5898470136EEE7B300EB58984733
:103BDC000136F2E7044800080448000808480008C9
:103BEC00044800087047704770B505000C1E10D0D3
:103BFC00043C2368002B00DAE418280000F0E0F8FD
:103C0C001D4A1368002B05D163601460280000F076
:103C1C00DFF870BDA34208D9206821188B42F3D17C
:103C2C0019685B6809182160EEE71A005B68002BC5
:103C3C0001D0A342F9D911685018A0420BD12068C9
:103C4C000918501811608342E0D118685B6841185C
:103C5C0011605360DAE7A04202D90C232B60D5E740
:103C6C00206821188B4203D119685B680918216000
:103C7C0063605460CAE7C0466C06002070B50F4EF6
:103C8C000D0031680400002902D100F095FB306072
:103C9C002900200000F090FB431C03D101256D424C
:103CAC00280070BD0323C51C9D43A842F8D0291AD7
:103CBC00200000F081FB0130F2D1EFE76806002014
:103CCC00F7B50322CB1C9343083305001F000C2BC4
:103CDC0034D20C27B94233D8280000F071F8374E93
:103CEC0033681C00002C2FD139002800FFF7C6FFC9
:103CFC000400431C5FD134680094009B002B4AD114
:103D0C00002C52D023682800E3180099019300F08E
:103D1C0053FB019B834248D123682800FF1A3900CA
:103D2C00FFF7ACFF013040D02368DB192360336808
:103D3C005A68002A33D1009B336019E0002BC9DA92
:103D4C000C232B600020FEBD2168C91B20D40B293D
:103D5C000AD9E2192760A34204D13260636811606A
:103D6C00536005E05A60F9E76268A3420ED13260F5
:103D7C00280000F02DF8200007220B30231D904363
:103D8C00C21A9842DFD01B1AA350DCE75A60EFE747
:103D9C0023006468A6E7009C63680093ADE71A00F3
:103DAC005B68A342FBD10023DAE70C2328002B60CD
:103DBC0000F00EF8C6E70760DAE7C0466C06002094
:103DCC0010B50248FFF70EFF10BDC0466406002078
:103DDC0010B50248FFF707FF10BDC046640600206F
:103DEC00F0B58E6885B01F000C0033000290039272
:103DFC00BE4254D80C22885E9022D20010422CD0A5
:103E0C000322096923685B1A019363695343019A7E
:103E1C00DD0FED187B1C6D109B182A00AB4201D9ED
:103E2C001D001A00400527D511000298FFF748FF26
:103E3C00061E2AD0019A216900F0DBFAA289194BDF
:103E4C001A4080231343A381019B2661F618266038
:103E5C0065613E00ED1A3B00A5601F003A00039916
:103E6C00206800F097FA0020A3689B1BA3602368CE
:103E7C00DB19236005B0F0BD029800F0C3FA061EF2
:103E8C00E2D121690298FFF7AFFE0C230120029AC0
:103E9C0040421360A28934331343A381EAE73E0006
:103EAC00DCE7C0467FFBFFFFF0B59FB002901D0022
:103EBC008B890F0016001B0612D50B69002B0FD136
:103ECC004021FFF7FDFE38603861002806D10C2335
:103EDC00029A1360012040421FB0F0BD40237B6169
:103EEC00002306AC6361203363761033A37605950B
:103EFC0035002B78002B01D0252B48D1AB1B03931D
:103F0C00B5420BD0320039000298FFF769FF01303F
:103F1C0000D1AAE06369039A9B1863612B78002B8C
:103F2C0000D1A2E00122532100235242626002AA76
:103F3C0052186E1C2360E360A3601370A365524B90
:103F4C00052218003178039300F048FA751C22689A
:103F5C0000281ED1D30604D5202302A953300918FA
:103F6C000B70130704D553202B2302A909180B70CF
:103F7C0033782A2B15D0350000210A20E3682A78E3
:103F8C006E1C303A092A4ED9002910D116E00135A1
:103F9C00AFE7039B2E00C01A012383401343236019
:103FAC00CDE7059B191D1B680591002B01DBE36018
:103FBC0004E05B42E3600223134323602B782E2B37
:103FCC000CD16B782A2B33D1059B02351A1D1B683B
:103FDC000592002B01DA01235B4263602B4E032216
:103FEC003000297800F0FAF9002806D04023801B15
:103FFC008340226801351343236029780622244824
:10400C006E1C217600F0EAF9002834D021480028F3
:10401C0021D10722059B073393430833059363692A
:10402C001B18636164E74343350001219B18A6E725
:10403C0000230A201900013563602A786E1C303A7F
:10404C00092A03D9002BC9D06160C7E74143350069
:10405C0001238918F1E705AA009221003A000E4BC2
:10406C00029800E000BF431CD9D1BB895B0600D588
:10407C0030E7606930E705AA009221003A00064B50
:10408C00029800F07BF8EEE7C8470008CE4700081E
:10409C00D247000800000000ED3D0008F7B51600FF
:1040AC0001938A680B690C000090934200DA1300AC
:1040BC002200336043321278002A01D0013333607E
:1040CC0023689B0602D533680233336022680623CB
:1040DC0015001D401A4227D0230043331B785A1E6B
:1040EC0093412268920630D4220001990098089DD1
:1040FC004332A847013025D00622236800251340FF
:10410C00042B05D13368E568ED1AEB43DB171D4032
:10411C00A3682269934201DD9B1AED180026B54273
:10412C0020D1002010E00135E36832689B1AAB42C5
:10413C00D2DD2200012301990098089F1932B8475B
:10414C000130F0D101204042FEBD3020E118433156
:10415C00087021005A1C45310978A21843320233E9
:10416C001170C1E72200012301990098089F1A32AF
:10417C00B8470130E6D00136D1E70000F0B58BB07E
:10418C0006920A0043320793059003920A7E0C00B4
:10419C00109B782A09D8622A0BD8002A00D1BBE0E0
:1041AC007A490491582A00D18FE0250042352A70B3
:1041BC0022E0100063381528F7D8FCF73BFA1600FC
:1041CC001F00F6FFF6FFF6FFF6FF1F00F6FFF6FFE7
:1041DC00F6FFF6FFA00036007F00F6FFF6FFB100F9
:1041EC00F6FF3600F6FFF6FF830025001A6842350D
:1041FC00111D196013682B7001239FE01868096862
:10420C00021D0D060BD506681A60002E03DA2D234D
:10421C00039A764213705D4B0A27049319E00668E3
:10422C001A604906F1D536B2EFE71A68096840CA38
:10423C00080602D4490600D5B6B21A60237E534A4A
:10424C000A2704926F2B00D1023F23000022433334
:10425C001A706368A360002B06DB04212268039D9F
:10426C008A43226033430CD0039D30003900FBF7A6
:10427C00C9FF049B013D5B5C2B70330006009F4221
:10428C00F3D9082F09D12368DB0706D562682369A7
:10429C009A4202DC3023013D2B70039B5B1B236194
:1042AC00079B210000930598069B09AAFFF7F6FED1
:1042BC00013048D1012040420BB0F0BD20220968EA
:1042CC000A432260782232490491210045310A7058
:1042DC001968226840C9100602D4500600D5B6B23F
:1042EC001960D30702D5202313432360002E01D07D
:1042FC001027AAE72022236893432360F8E71A6863
:10430C000D68101D4969186013682E0601D51960D7
:10431C0002E06D06FBD519800023039D2361BFE7E6
:10432C001A68111D1960156800212800626800F0D8
:10433C0055F8002801D0401B60606368236100239E
:10434C00039A1370ACE72A00236906990598079D18
:10435C00A8470130AED023689B0715D4099BE068B1
:10436C009842A9DA1800A7E72200012306990598BC
:10437C00079E1932B04701309CD00135E368099A89
:10438C009B1AAB42F0DCE9E70025F7E7D9470008B8
:10439C00EA47000810B5884202D98B18984208D316
:1043AC0000239A4207D0CC5CC4540133F9E78B5CF0
:1043BC008354013AFBD210BD002370B5064D0400A6
:1043CC0008002B60FEF7F2FE431C03D12B68002B78
:1043DC0000D0236070BDC04660060020C9B28218B0
:1043EC00904201D10020704703788B42FBD0013002
:1043FC00F6E7002310B59A4200D110BDCC5CC45432
:10440C000133F8E7F7B506000C001500002905D1BB
:10441C001100FFF755FC04002000FEBD002A03D15B
:10442C00FFF7E2FB2C00F7E700F01CF807008542D1
:10443C0002D84308AB42EFD329003000FFF740FC11
:10444C000190002801D1019CE6E72A00BD4200D969
:10445C003A0021000198FFF7CCFF21003000FFF754
:10446C00C3FBF0E70B1F1B68181F002B01DA0B585E
:10447C00C0187047F8B5C046F8BC08BC9E467047DB
:0C448C00F8B5C046F8BC08BC9E4670475E
:10449800696E7465726E6574000000004F4E00000E
:1044A8004552524F520000000D0A00004F4B0000C9
:1044B800415400002B435245473A20302C3100002C
:1044C80041542B435245473F000000002B435245BF
:1044D800473A20302C35000041542B434741435480
:1044E8003D302C310000000041542B434744434FDA
:1044F8004E543D312C224950222C22257322000093
:1045080041542B43474143543D312C3100000000B6
:1045180041542B485454505445524D0041542B4853
:10452800545450494E49540041542B485454505007
:104538004152413D2253534C434647222C310000FF
:1045480041542B4854545053534C3D310000000003
:1045580041542B48545450504152413D22434F4EF0
:1045680054454E54222C226170706C6963617469E1
:104578006F6E2F6A736F6E220000000041542B4843
:10458800545450504152413D2255524C222C222520
:10459800732200002B48545450414354494F4E3A1B
:1045A80020302C323030000041542B4854545041B4
:1045B8004354494F4E3D30002B48545450524541C6
:1045C800443A000041542B48545450524541443D0C
:1045D800302C35313200000041542B48545450508F
:1045E8004152413D22435553544F4D524551554533
:1045F8005354222C225041544348220041542B4802
:10460800545450444154413D25752C31303030309C
:1046180000000000444F574E4C4F4144000000003A
:104628002B48545450414354494F4E3A20312C3270
:104638003030000041542B48545450414354494FA2
:104648004E3D31004F4B0000415445300000000002
:1046580068747470733A2F2F6D6F746F722D636F57
:104668006E74726F6C6C65722D62653332302D64B6
:10467800656661756C742D727464622E617369610C
:104688002D736F75746865617374312E6669726510
:104698006261736564617461626173652E617070D3
:1046A8000000000025732F25732F636F6D6D616EF9
:1046B800642E6A736F6E0000646576696365732F94
:1046C800746573745F6465766963655F3030310063
:1046D80025732F25732E6A736F6E000074727565CB
:1046E8000000000066616C73650000007B226D6F3E
:1046F800746F725F72756E6E696E67223A25732CDD
:10470800226661756C74223A25732C22616C6C5F89
:104718006F6B223A25732C226C6173745F73656525
:104728006E223A7B222E7376223A2274696D657363
:1047380074616D70227D7D000000000000000000A3
:104748000000000000000000000000000000000061
:10475800000000000000000001000000020000004E
:10476800030000000400000006000000070000002D
:104778000800000009000000000000000000000020
:10478800000000000000000001000000020000001E
:1047980003000000040000000100020004000600FD
:1047A80008000A000C0010002000400080000001F2
:1047B80001010103070100000804020408010101C6
:1047C800232D302B2000686C4C00656667454647F2
:1047D8000030313233343536373839414243444575
:1047E80046003031323334353637383961626364E4
:0447F80065660000F2
:0847FC0034BCFF7F0100000046
:04480400E5000008C3
:04480800BD000008E7
:10480C000024F40004000000010000004F464600A4
:10481C000000000018000020000000002805002007
:10482C0090050020F80500200000000000000000AA
:10483C00000000000000000000000000000000006C
:10484C00000000000000000000000000000000005C
:10485C00000000000000000000000000000000004C
:04486C000000000048
:040000050800322598
:00000001FF
